{
    "_format": "hh-sol-artifact-1",
    "contractName": "CounterField",
    "sourceName": "contracts/CounterField.sol",
    "abi": [
        {
            "inputs": [],
            "stateMutability": "nonpayable",
            "type": "constructor"
        },
        {
            "anonymous": false,
            "inputs": [
                {
                    "indexed": true,
                    "internalType": "address",
                    "name": "previousOwner",
                    "type": "address"
                },
                {
                    "indexed": true,
                    "internalType": "address",
                    "name": "newOwner",
                    "type": "address"
                }
            ],
            "name": "OwnershipTransferred",
            "type": "event"
        },
        {
            "anonymous": false,
            "inputs": [
                {
                    "indexed": false,
                    "internalType": "string",
                    "name": "serialNumber",
                    "type": "string"
                }
            ],
            "name": "ProductApproved",
            "type": "event"
        },
        {
            "anonymous": false,
            "inputs": [
                {
                    "indexed": false,
                    "internalType": "string",
                    "name": "serialNumber",
                    "type": "string"
                }
            ],
            "name": "ProductRegistered",
            "type": "event"
        },
        {
            "inputs": [
                {
                    "internalType": "string",
                    "name": "_serialNumber",
                    "type": "string"
                },
                {
                    "internalType": "string",
                    "name": "_actor",
                    "type": "string"
                },
                {
                    "internalType": "string",
                    "name": "_location",
                    "type": "string"
                },
                {
                    "internalType": "uint256",
                    "name": "_timestamp",
                    "type": "uint256"
                },
                {
                    "internalType": "bool",
                    "name": "_isSold",
                    "type": "bool"
                }
            ],
            "name": "addProductHistory",
            "outputs": [],
            "stateMutability": "nonpayable",
            "type": "function"
        },
        {
            "inputs": [
                {
                    "internalType": "string",
                    "name": "_serialNumber",
                    "type": "string"
                }
            ],
            "name": "getProduct",
            "outputs": [
                {
                    "internalType": "string",
                    "name": "",
                    "type": "string"
                },
                {
                    "components": [
                        {
                            "internalType": "uint256",
                            "name": "id",
                            "type": "uint256"
                        },
                        {
                            "internalType": "string",
                            "name": "actor",
                            "type": "string"
                        },
                        {
                            "internalType": "string",
                            "name": "location",
                            "type": "string"
                        },
                        {
                            "internalType": "uint256",
                            "name": "timestamp",
                            "type": "uint256"
                        },
                        {
                            "internalType": "bool",
                            "name": "isSold",
                            "type": "bool"
                        }
                    ],
                    "internalType": "struct CounterField.ProductHistory[]",
                    "name": "",
                    "type": "tuple[]"
                }
            ],
            "stateMutability": "view",
            "type": "function"
        },
        {
            "inputs": [],
            "name": "gnosisSafe",
            "outputs": [
                {
                    "internalType": "address",
                    "name": "",
                    "type": "address"
                }
            ],
            "stateMutability": "view",
            "type": "function"
        },
        {
            "inputs": [],
            "name": "owner",
            "outputs": [
                {
                    "internalType": "address",
                    "name": "",
                    "type": "address"
                }
            ],
            "stateMutability": "view",
            "type": "function"
        },
        {
            "inputs": [
                {
                    "internalType": "string",
                    "name": "_name",
                    "type": "string"
                },
                {
                    "internalType": "string",
                    "name": "_brand",
                    "type": "string"
                },
                {
                    "internalType": "string",
                    "name": "_serialNumber",
                    "type": "string"
                },
                {
                    "internalType": "string",
                    "name": "_description",
                    "type": "string"
                },
                {
                    "internalType": "string",
                    "name": "_image",
                    "type": "string"
                },
                {
                    "internalType": "string",
                    "name": "_actor",
                    "type": "string"
                },
                {
                    "internalType": "string",
                    "name": "_location",
                    "type": "string"
                },
                {
                    "internalType": "uint256",
                    "name": "_increaseTimeStamp",
                    "type": "uint256"
                },
                {
                    "internalType": "bytes",
                    "name": "signature",
                    "type": "bytes"
                }
            ],
            "name": "registerProduct",
            "outputs": [
                {
                    "internalType": "bool",
                    "name": "",
                    "type": "bool"
                }
            ],
            "stateMutability": "nonpayable",
            "type": "function"
        },
        {
            "inputs": [],
            "name": "renounceOwnership",
            "outputs": [],
            "stateMutability": "nonpayable",
            "type": "function"
        },
        {
            "inputs": [
                {
                    "internalType": "address",
                    "name": "newOwner",
                    "type": "address"
                }
            ],
            "name": "transferOwnership",
            "outputs": [],
            "stateMutability": "nonpayable",
            "type": "function"
        }
    ],
    "bytecode": "0x608060405234801561001057600080fd5b5061001a33610041565b600054600280546001600160a01b0319166001600160a01b03909216919091179055610091565b600080546001600160a01b038381166001600160a01b0319831681178455604051919092169283917f8be0079c531659141344cd1fd0a4f28419497f9722a3daafe3b4186f6b6457e09190a35050565b61158c806100a06000396000f3fe608060405234801561001057600080fd5b506004361061006d5760003560e01c806307b608981461007257806368111cce14610087578063715018a6146100b15780638c2254ee146100b95780638da5cb5b146100dc578063a84173ae146100fc578063f2fde38b1461010f575b600080fd5b610085610080366004610f95565b610122565b005b61009a610095366004611040565b6103a2565b6040516100a89291906110cc565b60405180910390f35b6100856106ef565b6100cc6100c73660046111c4565b610703565b60405190151581526020016100a8565b6100e46109ad565b6040516001600160a01b0390911681526020016100a8565b6001546100e4906001600160a01b031681565b61008561011d366004611317565b6109bc565b6004856040516101329190611347565b9081526040519081900360200190206003015460ff166101b05760405162461bcd60e51b815260206004820152602e60248201527f556e61626c6520546f206164642050726f647563742c2070726f64756374206960448201526d1cc81b9bdd08185c1c1c9bdd995960921b60648201526084015b60405180910390fd5b60006003866040516101c29190611347565b90815260405190819003602001902060068101805491925060006101e583611379565b90915550506040805160a0810182526006830154808252602080830189815283850189905260608401889052861515608085015260009283526005860190915292902081518155915190919060018201906102409082611417565b50604082015160028201906102559082611417565b506060820151816003015560808201518160040160006101000a81548160ff0219169083151502179055509050506103626040518060400160405280601981526020017850726f6475637420486973746f72792061646465643a20257360381b8152508260050160008460060154815260200190815260200160002060010180546102df90611392565b80601f016020809104026020016040519081016040528092919081815260200182805461030b90611392565b80156103585780601f1061032d57610100808354040283529160200191610358565b820191906000526020600020905b81548152906001019060200180831161033b57829003601f168201915b5050505050610a35565b61039a6040518060400160405280600d81526020016c39b2b934b0b610373ab6b132b960991b8152508260000180546102df90611392565b505050505050565b60608060006003846040516103b79190611347565b9081526020016040518091039020600601546001600160401b038111156103e0576103e0610ef3565b60405190808252806020026020018201604052801561044557816020015b6104326040518060a00160405280600081526020016060815260200160608152602001600081526020016000151581525090565b8152602001906001900390816103fe5790505b50905060005b60038560405161045b9190611347565b908152602001604051809103902060060154811015610636576003856040516104849190611347565b90815260405190819003602001902060050160006104a38360016114d6565b81526020019081526020016000206040518060a0016040529081600082015481526020016001820180546104d690611392565b80601f016020809104026020016040519081016040528092919081815260200182805461050290611392565b801561054f5780601f106105245761010080835404028352916020019161054f565b820191906000526020600020905b81548152906001019060200180831161053257829003601f168201915b5050505050815260200160028201805461056890611392565b80601f016020809104026020016040519081016040528092919081815260200182805461059490611392565b80156105e15780601f106105b6576101008083540402835291602001916105e1565b820191906000526020600020905b8154815290600101906020018083116105c457829003601f168201915b50505091835250506003820154602082015260049091015460ff1615156040909101528251839083908110610618576106186114e9565b6020026020010181905250808061062e90611379565b91505061044b565b506003846040516106479190611347565b90815260200160405180910390206000018181805461066590611392565b80601f016020809104026020016040519081016040528092919081815260200182805461069190611392565b80156106de5780601f106106b3576101008083540402835291602001916106de565b820191906000526020600020905b8154815290600101906020018083116106c157829003601f168201915b505050505091509250925050915091565b6106f7610a7e565b6107016000610add565b565b600083420361078c5760405162461bcd60e51b815260206004820152604960248201527f726567697374657250726f647563743a20496e6372656173652074696d65737460448201527f616d702073686f756c646e277420626520657175616c20746f20626c6f636b2e606482015268074696d657374616d760bc1b608482015260a4016101a7565b60408051600180825281830190925260009160208083019080368337505060025482519293506001600160a01b0316918391506000906107ce576107ce6114e9565b6001600160a01b039290921660209283029190910190910152604080516001808252818301909252600091816020016020820280368337019050509050600081600081518110610820576108206114e9565b60200260200101818152505060008b905060008c60405160200161084491906114ff565b60405160208183030381529060405280519060200120905061087d878783600260009054906101000a90046001600160a01b0316610b2d565b600060038360405161088f9190611347565b908152602001604051809103902090508f8160010190816108b09190611417565b508e8160030190816108c29190611417565b50806108ce8f82611417565b50600281016108dd8e82611417565b50600481016108ec8d82611417565b5060008160060181905550600060048f6040516109099190611347565b908152602001604051809103902090508e81600001908161092a9190611417565b50600181016109398d82611417565b50600281018a905560038101805460ff1916600117905561095e8f8d8d8d6000610122565b7f64a419b89f732445e89c3995d6b700552a1ae00477b9b79a18810cf5009054188f60405161098d91906114ff565b60405180910390a1600196505050505050509a9950505050505050505050565b6000546001600160a01b031690565b6109c4610a7e565b6001600160a01b038116610a295760405162461bcd60e51b815260206004820152602660248201527f4f776e61626c653a206e6577206f776e657220697320746865207a65726f206160448201526564647265737360d01b60648201526084016101a7565b610a3281610add565b50565b610a7a8282604051602401610a4b929190611512565b60408051601f198184030181529190526020810180516001600160e01b0316634b5c427760e01b179052610c5f565b5050565b33610a876109ad565b6001600160a01b0316146107015760405162461bcd60e51b815260206004820181905260248201527f4f776e61626c653a2063616c6c6572206973206e6f7420746865206f776e657260448201526064016101a7565b600080546001600160a01b038381166001600160a01b0319831681178455604051919092169283917f8be0079c531659141344cd1fd0a4f28419497f9722a3daafe3b4186f6b6457e09190a35050565b6000610b7a604080516020810182905260046060820152633078303160e01b6080820152309181019190915260009060a00160405160208183030381529060405280519060200120905090565b60405161190160f01b60208201526022810191909152604281018490526062016040516020818303038152906040528051906020012090506000610bf48287878080601f016020809104026020016040519081016040528093929190818152602001838380828437600092019190915250610c6892505050565b90506001600160a01b03811615801590610c1f5750826001600160a01b0316816001600160a01b0316145b61039a5760405162461bcd60e51b8152602060048201526011602482015270494e56414c49445f5349474e415455524560781b60448201526064016101a7565b610a3281610c8e565b6000806000610c778585610caf565b91509150610c8481610cf4565b5090505b92915050565b60006a636f6e736f6c652e6c6f679050600080835160208501845afa505050565b6000808251604103610ce55760208301516040840151606085015160001a610cd987828585610e39565b94509450505050610ced565b506000905060025b9250929050565b6000816004811115610d0857610d08611540565b03610d105750565b6001816004811115610d2457610d24611540565b03610d6c5760405162461bcd60e51b815260206004820152601860248201527745434453413a20696e76616c6964207369676e617475726560401b60448201526064016101a7565b6002816004811115610d8057610d80611540565b03610dcd5760405162461bcd60e51b815260206004820152601f60248201527f45434453413a20696e76616c6964207369676e6174757265206c656e6774680060448201526064016101a7565b6003816004811115610de157610de1611540565b03610a325760405162461bcd60e51b815260206004820152602260248201527f45434453413a20696e76616c6964207369676e6174757265202773272076616c604482015261756560f01b60648201526084016101a7565b6000806fa2a8918ca85bafe22016d0b997e4df60600160ff1b03831115610e665750600090506003610eea565b6040805160008082526020820180845289905260ff881692820192909252606081018690526080810185905260019060a0016020604051602081039080840390855afa158015610eba573d6000803e3d6000fd5b5050604051601f1901519150506001600160a01b038116610ee357600060019250925050610eea565b9150600090505b94509492505050565b634e487b7160e01b600052604160045260246000fd5b600082601f830112610f1a57600080fd5b81356001600160401b0380821115610f3457610f34610ef3565b604051601f8301601f19908116603f01168101908282118183101715610f5c57610f5c610ef3565b81604052838152866020858801011115610f7557600080fd5b836020870160208301376000602085830101528094505050505092915050565b600080600080600060a08688031215610fad57600080fd5b85356001600160401b0380821115610fc457600080fd5b610fd089838a01610f09565b96506020880135915080821115610fe657600080fd5b610ff289838a01610f09565b9550604088013591508082111561100857600080fd5b5061101588828901610f09565b935050606086013591506080860135801515811461103257600080fd5b809150509295509295909350565b60006020828403121561105257600080fd5b81356001600160401b0381111561106857600080fd5b61107484828501610f09565b949350505050565b60005b8381101561109757818101518382015260200161107f565b50506000910152565b600081518084526110b881602086016020860161107c565b601f01601f19169290920160200192915050565b600060408083526110df818401866110a0565b6020848203818601528186518084528284019150828160051b85010183890160005b8381101561117357601f19878403018552815160a08151855287820151818987015261112f828701826110a0565b915050898201518582038b87015261114782826110a0565b606084810151908801526080938401511515939096019290925250509385019390850190600101611101565b50909a9950505050505050505050565b60008083601f84011261119557600080fd5b5081356001600160401b038111156111ac57600080fd5b602083019150836020828501011115610ced57600080fd5b6000806000806000806000806000806101208b8d0312156111e457600080fd5b8a356001600160401b03808211156111fb57600080fd5b6112078e838f01610f09565b9b5060208d013591508082111561121d57600080fd5b6112298e838f01610f09565b9a5060408d013591508082111561123f57600080fd5b61124b8e838f01610f09565b995060608d013591508082111561126157600080fd5b61126d8e838f01610f09565b985060808d013591508082111561128357600080fd5b61128f8e838f01610f09565b975060a08d01359150808211156112a557600080fd5b6112b18e838f01610f09565b965060c08d01359150808211156112c757600080fd5b6112d38e838f01610f09565b955060e08d013594506101008d01359150808211156112f157600080fd5b506112fe8d828e01611183565b915080935050809150509295989b9194979a5092959850565b60006020828403121561132957600080fd5b81356001600160a01b038116811461134057600080fd5b9392505050565b6000825161135981846020870161107c565b9190910192915050565b634e487b7160e01b600052601160045260246000fd5b60006001820161138b5761138b611363565b5060010190565b600181811c908216806113a657607f821691505b6020821081036113c657634e487b7160e01b600052602260045260246000fd5b50919050565b601f82111561141257600081815260208120601f850160051c810160208610156113f35750805b601f850160051c820191505b8181101561039a578281556001016113ff565b505050565b81516001600160401b0381111561143057611430610ef3565b6114448161143e8454611392565b846113cc565b602080601f83116001811461147957600084156114615750858301515b600019600386901b1c1916600185901b17855561039a565b600085815260208120601f198616915b828110156114a857888601518255948401946001909101908401611489565b50858210156114c65787850151600019600388901b60f8161c191681555b5050505050600190811b01905550565b80820180821115610c8857610c88611363565b634e487b7160e01b600052603260045260246000fd5b60208152600061134060208301846110a0565b60408152600061152560408301856110a0565b828103602084015261153781856110a0565b95945050505050565b634e487b7160e01b600052602160045260246000fdfea264697066735822122075491bbcff9773b10e41023884ffded0c83aa82e332125fb48637a4b18a84fa664736f6c63430008140033",
    "linkReferences": {},
    "deployedLinkReferences": {}
}