{
  "_format": "hh-sol-artifact-1",
  "contractName": "Identeefi",
  "sourceName": "contracts/Identeefi.sol",
  "abi": [
    {
      "inputs": [
        {
          "internalType": "string",
          "name": "_serialNumber",
          "type": "string"
        },
        {
          "internalType": "string",
          "name": "_actor",
          "type": "string"
        },
        {
          "internalType": "string",
          "name": "_location",
          "type": "string"
        },
        {
          "internalType": "string",
          "name": "_timestamp",
          "type": "string"
        },
        {
          "internalType": "bool",
          "name": "_isSold",
          "type": "bool"
        }
      ],
      "name": "addProductHistory",
      "outputs": [],
      "stateMutability": "nonpayable",
      "type": "function"
    },
    {
      "inputs": [
        {
          "internalType": "string",
          "name": "_serialNumber",
          "type": "string"
        }
      ],
      "name": "getProduct",
      "outputs": [
        {
          "internalType": "string",
          "name": "",
          "type": "string"
        },
        {
          "internalType": "string",
          "name": "",
          "type": "string"
        },
        {
          "internalType": "string",
          "name": "",
          "type": "string"
        },
        {
          "internalType": "string",
          "name": "",
          "type": "string"
        },
        {
          "internalType": "string",
          "name": "",
          "type": "string"
        },
        {
          "components": [
            {
              "internalType": "uint256",
              "name": "id",
              "type": "uint256"
            },
            {
              "internalType": "string",
              "name": "actor",
              "type": "string"
            },
            {
              "internalType": "string",
              "name": "location",
              "type": "string"
            },
            {
              "internalType": "string",
              "name": "timestamp",
              "type": "string"
            },
            {
              "internalType": "bool",
              "name": "isSold",
              "type": "bool"
            }
          ],
          "internalType": "struct Identeefi.ProductHistory[]",
          "name": "",
          "type": "tuple[]"
        }
      ],
      "stateMutability": "view",
      "type": "function"
    },
    {
      "inputs": [],
      "name": "owner",
      "outputs": [
        {
          "internalType": "address",
          "name": "",
          "type": "address"
        }
      ],
      "stateMutability": "view",
      "type": "function"
    },
    {
      "inputs": [
        {
          "internalType": "string",
          "name": "_name",
          "type": "string"
        },
        {
          "internalType": "string",
          "name": "_brand",
          "type": "string"
        },
        {
          "internalType": "string",
          "name": "_serialNumber",
          "type": "string"
        },
        {
          "internalType": "string",
          "name": "_description",
          "type": "string"
        },
        {
          "internalType": "string",
          "name": "_image",
          "type": "string"
        },
        {
          "internalType": "string",
          "name": "_actor",
          "type": "string"
        },
        {
          "internalType": "string",
          "name": "_location",
          "type": "string"
        },
        {
          "internalType": "string",
          "name": "_timestamp",
          "type": "string"
        }
      ],
      "name": "registerProduct",
      "outputs": [],
      "stateMutability": "nonpayable",
      "type": "function"
    }
  ],
  "bytecode": "0x608060405234801561001057600080fd5b50611163806100206000396000f3fe608060405234801561001057600080fd5b506004361061004c5760003560e01c80633e2357e31461005157806368111cce146100665780638da5cb5b14610094578063b4b33ef5146100bf575b600080fd5b61006461005f366004610b71565b6100d2565b005b610079610074366004610cb0565b610160565b60405161008b96959493929190610d3c565b60405180910390f35b6000546100a7906001600160a01b031681565b6040516001600160a01b03909116815260200161008b565b6100646100cd366004610e59565b6107f9565b60006001876040516100e49190610f1f565b9081526040519081900360200190209050806101008a82610fc0565b506003810161010f8982610fc0565b506001810161011e8882610fc0565b506002810161012d8782610fc0565b506004810161013c8682610fc0565b50600081600601819055506101558785858560006107f9565b505050505050505050565b606080606080606080600060018860405161017b9190610f1f565b9081526020016040518091039020600601546001600160401b038111156101a4576101a4610acf565b60405190808252806020026020018201604052801561020957816020015b6101f66040518060a00160405280600081526020016060815260200160608152602001606081526020016000151581525090565b8152602001906001900390816101c25790505b50905060005b60018960405161021f9190610f1f565b908152602001604051809103902060060154811015610483576001896040516102489190610f1f565b9081526040519081900360200190206005016000610267836001611095565b81526020019081526020016000206040518060a00160405290816000820154815260200160018201805461029a90610f3b565b80601f01602080910402602001604051908101604052809291908181526020018280546102c690610f3b565b80156103135780601f106102e857610100808354040283529160200191610313565b820191906000526020600020905b8154815290600101906020018083116102f657829003601f168201915b5050505050815260200160028201805461032c90610f3b565b80601f016020809104026020016040519081016040528092919081815260200182805461035890610f3b565b80156103a55780601f1061037a576101008083540402835291602001916103a5565b820191906000526020600020905b81548152906001019060200180831161038857829003601f168201915b505050505081526020016003820180546103be90610f3b565b80601f01602080910402602001604051908101604052809291908181526020018280546103ea90610f3b565b80156104375780601f1061040c57610100808354040283529160200191610437565b820191906000526020600020905b81548152906001019060200180831161041a57829003601f168201915b50505091835250506004919091015460ff1615156020909101528251839083908110610465576104656110ae565b6020026020010181905250808061047b906110c4565b91505061020f565b506001886040516104949190610f1f565b90815260200160405180910390206001016001896040516104b59190610f1f565b908152604051908190036020018120906001906104d3908c90610f1f565b908152602001604051809103902060030160018b6040516104f49190610f1f565b908152602001604051809103902060020160018c6040516105159190610f1f565b90815260200160405180910390206004018585805461053390610f3b565b80601f016020809104026020016040519081016040528092919081815260200182805461055f90610f3b565b80156105ac5780601f10610581576101008083540402835291602001916105ac565b820191906000526020600020905b81548152906001019060200180831161058f57829003601f168201915b505050505095508480546105bf90610f3b565b80601f01602080910402602001604051908101604052809291908181526020018280546105eb90610f3b565b80156106385780601f1061060d57610100808354040283529160200191610638565b820191906000526020600020905b81548152906001019060200180831161061b57829003601f168201915b5050505050945083805461064b90610f3b565b80601f016020809104026020016040519081016040528092919081815260200182805461067790610f3b565b80156106c45780601f10610699576101008083540402835291602001916106c4565b820191906000526020600020905b8154815290600101906020018083116106a757829003601f168201915b505050505093508280546106d790610f3b565b80601f016020809104026020016040519081016040528092919081815260200182805461070390610f3b565b80156107505780601f1061072557610100808354040283529160200191610750565b820191906000526020600020905b81548152906001019060200180831161073357829003601f168201915b5050505050925081805461076390610f3b565b80601f016020809104026020016040519081016040528092919081815260200182805461078f90610f3b565b80156107dc5780601f106107b1576101008083540402835291602001916107dc565b820191906000526020600020905b8154815290600101906020018083116107bf57829003601f168201915b505050505091509650965096509650965096505091939550919395565b600060018660405161080b9190610f1f565b908152604051908190036020019020600681018054919250600061082e836110c4565b90915550506040805160a0810182526006830154808252602080830189815283850189905260608401889052861515608085015260009283526005860190915292902081518155915190919060018201906108899082610fc0565b506040820151600282019061089e9082610fc0565b50606082015160038201906108b39082610fc0565b50608091909101516004909101805460ff19169115159190911790556040805180820190915260068082526569313a20257360d01b60208301528201546108fa9190610a18565b6109d96040518060400160405280601981526020017850726f6475637420486973746f72792061646465643a20257360381b81525082600501600084600601548152602001908152602001600020600101805461095690610f3b565b80601f016020809104026020016040519081016040528092919081815260200182805461098290610f3b565b80156109cf5780601f106109a4576101008083540402835291602001916109cf565b820191906000526020600020905b8154815290600101906020018083116109b257829003601f168201915b5050505050610a61565b610a106040518060400160405280600c81526020016b50726f64756374203a20257360a01b81525082600001805461095690610f3b565b505050505050565b610a5d8282604051602401610a2e9291906110dd565b60408051601f198184030181529190526020810180516001600160e01b0316632d839cb360e21b179052610aa2565b5050565b610a5d8282604051602401610a779291906110ff565b60408051601f198184030181529190526020810180516001600160e01b0316634b5c427760e01b1790525b610aab81610aae565b50565b60006a636f6e736f6c652e6c6f679050600080835160208501845afa505050565b634e487b7160e01b600052604160045260246000fd5b600082601f830112610af657600080fd5b81356001600160401b0380821115610b1057610b10610acf565b604051601f8301601f19908116603f01168101908282118183101715610b3857610b38610acf565b81604052838152866020858801011115610b5157600080fd5b836020870160208301376000602085830101528094505050505092915050565b600080600080600080600080610100898b031215610b8e57600080fd5b88356001600160401b0380821115610ba557600080fd5b610bb18c838d01610ae5565b995060208b0135915080821115610bc757600080fd5b610bd38c838d01610ae5565b985060408b0135915080821115610be957600080fd5b610bf58c838d01610ae5565b975060608b0135915080821115610c0b57600080fd5b610c178c838d01610ae5565b965060808b0135915080821115610c2d57600080fd5b610c398c838d01610ae5565b955060a08b0135915080821115610c4f57600080fd5b610c5b8c838d01610ae5565b945060c08b0135915080821115610c7157600080fd5b610c7d8c838d01610ae5565b935060e08b0135915080821115610c9357600080fd5b50610ca08b828c01610ae5565b9150509295985092959890939650565b600060208284031215610cc257600080fd5b81356001600160401b03811115610cd857600080fd5b610ce484828501610ae5565b949350505050565b60005b83811015610d07578181015183820152602001610cef565b50506000910152565b60008151808452610d28816020860160208601610cec565b601f01601f19169290920160200192915050565b60c081526000610d4f60c0830189610d10565b602083820381850152610d62828a610d10565b9150604084830381860152610d77838a610d10565b9250606085840381870152610d8c848a610d10565b9350608086850381880152610da1858a610d10565b945060a0878603818901528589518088528688019150868160051b890101878c0160005b83811015610e4057601f198b84030185528151805184528a810151878c860152610df188860182610d10565b90508a8201518582038c870152610e088282610d10565b915050898201518582038b870152610e208282610d10565b928a01511515958a019590955250948a0194925090890190600101610dc5565b5050809950505050505050505050979650505050505050565b600080600080600060a08688031215610e7157600080fd5b85356001600160401b0380821115610e8857600080fd5b610e9489838a01610ae5565b96506020880135915080821115610eaa57600080fd5b610eb689838a01610ae5565b95506040880135915080821115610ecc57600080fd5b610ed889838a01610ae5565b94506060880135915080821115610eee57600080fd5b50610efb88828901610ae5565b92505060808601358015158114610f1157600080fd5b809150509295509295909350565b60008251610f31818460208701610cec565b9190910192915050565b600181811c90821680610f4f57607f821691505b602082108103610f6f57634e487b7160e01b600052602260045260246000fd5b50919050565b601f821115610fbb57600081815260208120601f850160051c81016020861015610f9c5750805b601f850160051c820191505b81811015610a1057828155600101610fa8565b505050565b81516001600160401b03811115610fd957610fd9610acf565b610fed81610fe78454610f3b565b84610f75565b602080601f831160018114611022576000841561100a5750858301515b600019600386901b1c1916600185901b178555610a10565b600085815260208120601f198616915b8281101561105157888601518255948401946001909101908401611032565b508582101561106f5787850151600019600388901b60f8161c191681555b5050505050600190811b01905550565b634e487b7160e01b600052601160045260246000fd5b808201808211156110a8576110a861107f565b92915050565b634e487b7160e01b600052603260045260246000fd5b6000600182016110d6576110d661107f565b5060010190565b6040815260006110f06040830185610d10565b90508260208301529392505050565b6040815260006111126040830185610d10565b82810360208401526111248185610d10565b9594505050505056fea26469706673582212202ef3f6fd03a41ce9f087d1198f1afb820ecde26faa9ea180374ecab37261484864736f6c63430008140033",
  "linkReferences": {},
  "deployedLinkReferences": {}
}